S01E00003038202D204C696E6520466F6C6C6F776572204361722E7372656309
S11300000C942A000C9434000C9434000C943400A6
S11300100C9434000C9434000C9434000C9434008C
S11300200C9434000C9434000C9434000C9434007C
S11300300C9434000C9434000C9434000C9434006C
S11300400C9434000C9434000C9434000C9434005C
S11300500C94340011241FBECFE5D8E0DEBFCDBF21
S11300600E949A010C94D2020C940000CF93C82FE2
S113007041E064E083E00E94740041E065E083E0D5
S11300800E94740041E060E083E00E94740041E05B
S113009061E083E00E94740041E062E083E00E943A
S11300A0740041E063E083E00E9474006C2F80E000
S11300B00E9454016C2F81E00E94540141E060E0F1
S11300C083E00E94E40040E061E083E00E94E400F9
S11300D041E062E083E00E94E40040E063E083E00A
S11300E00E94E400CF9108954130A1F5813089F058
S11300F028F08230C9F0833011F108952AB381E0E9
S113010090E002C0880F991F6A95E2F7822B8ABBA0
S1130110089527B381E090E002C0880F991F6A9583
S1130120E2F7822B87BB089524B381E090E002C0FC
S1130130880F991F6A95E2F7822B84BB089521B337
S113014081E090E002C0880F991F6A95E2F7822B44
S113015081BB0895411137C0813091F028F082307D
S1130160D9F0833029F108952AB381E090E002C0E8
S1130170880F991F6A95E2F7809582238ABB0895B8
S113018027B381E090E002C0880F991F6A95E2F7D7
S11301908095822387BB089524B381E090E002C058
S11301A0880F991F6A95E2F78095822384BB08958E
S11301B021B381E090E002C0880F991F6A95E2F7AD
S11301C08095822381BB08954130A1F5813089F067
S11301D028F08230C9F0833011F108952BB381E007
S11301E090E002C0880F991F6A95E2F7822B8BBBBF
S11301F0089528B381E090E002C0880F991F6A95A2
S1130200E2F7822B88BB089525B381E090E002C019
S1130210880F991F6A95E2F7822B85BB089522B354
S113022081E090E002C0880F991F6A95E2F7822B63
S113023082BB0895411137C0813091F028F082309B
S1130240D9F0833029F108952BB381E090E002C006
S1130250880F991F6A95E2F7809582238BBB0895D6
S113026028B381E090E002C0880F991F6A95E2F7F5
S11302708095822388BB089525B381E090E002C075
S1130280880F991F6A95E2F78095822385BB0895AC
S113029022B381E090E002C0880F991F6A95E2F7CB
S11302A08095822382BB08959FB591609FBD9FB5C1
S11302B092609FBD9EB598609EBD9EB59F7E9EBD7B
S11302C09EB59E7F9EBD9EB592609EBD9EB59B7F52
S11302D09EBD882319F08130B9F008958FB58068E8
S11302E08FBD8FB58F7B8FBD70E080E090E00E9462
S11302F0D70124E13EEA43E251E40E943D020E9418
S1130300A8017BBD6ABD08958FB580628FBD8FB58E
S11303108F7E8FBD70E080E090E00E94D70124E1E1
S11303203EEA43E251E40E943D020E94A80179BDE5
S113033068BD089540E060E080E00E94740040E001
S113034061E080E00E94740080E50E943600FCCFEA
S11303500E941C0288F09F5798F0B92F9927B75133
S1130360B0F0E1F0660F771F881F991F1AF0BA9555
S1130370C9F714C0B13091F00E943602B1E008957B
S11303800C943602672F782F8827B85F39F0B93F6D
S1130390CCF3869577956795B395D9F73EF4909508
S11303A08095709561957F4F8F4F9F4F0895E89486
S11303B009C097FB3EF490958095709561957F4FA9
S11303C08F4F9F4F9923A9F0F92F96E9BB27939557
S11303D0F695879577956795B795F111F8CFFAF467
S11303E0BB0F11F460FF1BC06F5F7F4F8F4F9F4F98
S11303F016C0882311F096E911C0772321F09EE8F6
S1130400872F762F05C0662371F096E8862F70E05B
S113041060E02AF09A95660F771F881FDAF7880F35
S11304209695879597F9089557FD9058440F551F51
S113043059F05F3F71F04795880F97FB991F61F062
S11304409F3F79F087950895121613061406551FD9
S1130450F2CF4695F1DF08C0161617061806991F45
S1130460F1CF86957105610508940895E894BB273A
S113047066277727CB0197F908950E9450020C94C0
S1130480C1020E94B30238F00E94BA0220F0952300
S113049011F00C94AA020C94B00211240C943702AB
S11304A00E94140270F3959FC1F3950F50E0551FFD
S11304B0629FF001729FBB27F00DB11D639FAA27B5
S11304C0F00DB11DAA1F649F6627B00DA11D661F04
S11304D0829F2227B00DA11D621F739FB00DA11D25
S11304E0621F839FA00D611D221F749F3327A00DDF
S11304F0611D231F849F600D211D822F762F6A2F7B
S113050011249F5750409AF0F1F088234AF0EE0FDF
S1130510FF1FBB1F661F771F881F91505040A9F70C
S11305209E3F510580F00C94AA020C9437025F3F61
S1130530E4F3983ED4F3869577956795B795F79548
S1130540E7959F5FC1F7FE2B880F911D96958795C0
S113055097F9089597F99F6780E870E060E008953F
S11305609FEF80EC089500240A94161617061806C7
S11305700906089500240A941216130614060506A3
S11305800895092E0394000C11F4882352F0BB0F34
S113059040F4BF2B11F460FF04C06F5F7F4F8F4F97
S10B05A09F4F0895F894FFCF6A
S9030000FC
